{
  "contractName": "EcomStore",
  "abi": [
    {
      "constant": true,
      "inputs": [
        {
          "name": "",
          "type": "uint256"
        }
      ],
      "name": "products",
      "outputs": [
        {
          "name": "productId",
          "type": "uint256"
        },
        {
          "name": "seller",
          "type": "address"
        },
        {
          "name": "buyer",
          "type": "address"
        },
        {
          "name": "productName",
          "type": "string"
        },
        {
          "name": "productDesc",
          "type": "string"
        },
        {
          "name": "productPrice",
          "type": "uint256"
        },
        {
          "name": "isSold",
          "type": "bool"
        },
        {
          "name": "isShipped",
          "type": "bool"
        },
        {
          "name": "isReceived",
          "type": "bool"
        }
      ],
      "payable": false,
      "stateMutability": "view",
      "type": "function",
      "signature": "0x7acc0b20"
    },
    {
      "inputs": [],
      "payable": false,
      "stateMutability": "nonpayable",
      "type": "constructor",
      "signature": "constructor"
    },
    {
      "anonymous": false,
      "inputs": [
        {
          "indexed": false,
          "name": "seller",
          "type": "address"
        },
        {
          "indexed": false,
          "name": "name",
          "type": "string"
        },
        {
          "indexed": false,
          "name": "price",
          "type": "uint256"
        }
      ],
      "name": "ListProductEvent",
      "type": "event",
      "signature": "0x953b413691095121d47ece72dc15babba90d3e8b8e5504b53a64d354be8bde44"
    },
    {
      "constant": false,
      "inputs": [
        {
          "name": "_productName",
          "type": "string"
        },
        {
          "name": "_productDesc",
          "type": "string"
        },
        {
          "name": "_productPrice",
          "type": "uint256"
        }
      ],
      "name": "listProduct",
      "outputs": [
        {
          "name": "",
          "type": "uint256"
        }
      ],
      "payable": false,
      "stateMutability": "nonpayable",
      "type": "function",
      "signature": "0x6d6b7777"
    },
    {
      "constant": true,
      "inputs": [
        {
          "name": "_productId",
          "type": "uint256"
        }
      ],
      "name": "getProduct",
      "outputs": [
        {
          "name": "productId",
          "type": "uint256"
        },
        {
          "name": "productName",
          "type": "string"
        },
        {
          "name": "productDesc",
          "type": "string"
        },
        {
          "name": "productPrice",
          "type": "uint256"
        },
        {
          "name": "isSold",
          "type": "bool"
        },
        {
          "name": "isShipped",
          "type": "bool"
        },
        {
          "name": "isReceived",
          "type": "bool"
        }
      ],
      "payable": false,
      "stateMutability": "view",
      "type": "function",
      "signature": "0xb9db15b4"
    },
    {
      "constant": false,
      "inputs": [
        {
          "name": "_productId",
          "type": "uint256"
        }
      ],
      "name": "productShipped",
      "outputs": [
        {
          "name": "",
          "type": "bool"
        }
      ],
      "payable": false,
      "stateMutability": "nonpayable",
      "type": "function",
      "signature": "0xb4af2d94"
    },
    {
      "constant": false,
      "inputs": [
        {
          "name": "_productId",
          "type": "uint256"
        }
      ],
      "name": "productReceived",
      "outputs": [
        {
          "name": "",
          "type": "bool"
        }
      ],
      "payable": false,
      "stateMutability": "nonpayable",
      "type": "function",
      "signature": "0xaf64f966"
    },
    {
      "constant": false,
      "inputs": [
        {
          "name": "_productId",
          "type": "uint256"
        }
      ],
      "name": "productSold",
      "outputs": [
        {
          "name": "",
          "type": "bool"
        }
      ],
      "payable": false,
      "stateMutability": "nonpayable",
      "type": "function",
      "signature": "0x64625a72"
    },
    {
      "constant": false,
      "inputs": [
        {
          "name": "_productId",
          "type": "uint256"
        }
      ],
      "name": "fundTransfer",
      "outputs": [],
      "payable": false,
      "stateMutability": "nonpayable",
      "type": "function",
      "signature": "0xeaf8294b"
    },
    {
      "constant": false,
      "inputs": [
        {
          "name": "_productId",
          "type": "uint256"
        }
      ],
      "name": "buyProduct",
      "outputs": [],
      "payable": true,
      "stateMutability": "payable",
      "type": "function",
      "signature": "0x8642269e"
    },
    {
      "constant": false,
      "inputs": [],
      "name": "kill",
      "outputs": [],
      "payable": false,
      "stateMutability": "nonpayable",
      "type": "function",
      "signature": "0x41c0e1b5"
    }
  ],
  "bytecode": "0x608060405234801561001057600080fd5b50336000806101000a81548173ffffffffffffffffffffffffffffffffffffffff021916908373ffffffffffffffffffffffffffffffffffffffff1602179055506001600060146101000a81548160ff0219169083151502179055506118928061007b6000396000f3fe608060405260043610610099576000357c0100000000000000000000000000000000000000000000000000000000900463ffffffff16806341c0e1b51461009e57806364625a72146100b55780636d6b7777146101085780637acc0b20146102855780638642269e1461043a578063af64f96614610468578063b4af2d94146104bb578063b9db15b41461050e578063eaf8294b1461065d575b600080fd5b3480156100aa57600080fd5b506100b3610698565b005b3480156100c157600080fd5b506100ee600480360360208110156100d857600080fd5b81019080803590602001909291905050506107bc565b604051808215151515815260200191505060405180910390f35b34801561011457600080fd5b5061026f6004803603606081101561012b57600080fd5b810190808035906020019064010000000081111561014857600080fd5b82018360208201111561015a57600080fd5b8035906020019184600183028401116401000000008311171561017c57600080fd5b91908080601f016020809104026020016040519081016040528093929190818152602001838380828437600081840152601f19601f820116905080830192505050505050509192919290803590602001906401000000008111156101df57600080fd5b8201836020820111156101f157600080fd5b8035906020019184600183028401116401000000008311171561021357600080fd5b91908080601f016020809104026020016040519081016040528093929190818152602001838380828437600081840152601f19601f820116905080830192505050505050509192919290803590602001909291905050506107fc565b6040518082815260200191505060405180910390f35b34801561029157600080fd5b506102be600480360360208110156102a857600080fd5b8101908080359060200190929190505050610bed565b604051808a81526020018973ffffffffffffffffffffffffffffffffffffffff1673ffffffffffffffffffffffffffffffffffffffff1681526020018873ffffffffffffffffffffffffffffffffffffffff1673ffffffffffffffffffffffffffffffffffffffff1681526020018060200180602001878152602001861515151581526020018515151515815260200184151515158152602001838103835289818151815260200191508051906020019080838360005b83811015610390578082015181840152602081019050610375565b50505050905090810190601f1680156103bd5780820380516001836020036101000a031916815260200191505b50838103825288818151815260200191508051906020019080838360005b838110156103f65780820151818401526020810190506103db565b50505050905090810190601f1680156104235780820380516001836020036101000a031916815260200191505b509b50505050505050505050505060405180910390f35b6104666004803603602081101561045057600080fd5b8101908080359060200190929190505050610de1565b005b34801561047457600080fd5b506104a16004803603602081101561048b57600080fd5b8101908080359060200190929190505050610fc3565b604051808215151515815260200191505060405180910390f35b3480156104c757600080fd5b506104f4600480360360208110156104de57600080fd5b810190808035906020019092919050505061110c565b604051808215151515815260200191505060405180910390f35b34801561051a57600080fd5b506105476004803603602081101561053157600080fd5b81019080803590602001909291905050506112d8565b604051808881526020018060200180602001878152602001861515151581526020018515151515815260200184151515158152602001838103835289818151815260200191508051906020019080838360005b838110156105b557808201518184015260208101905061059a565b50505050905090810190601f1680156105e25780820380516001836020036101000a031916815260200191505b50838103825288818151815260200191508051906020019080838360005b8381101561061b578082015181840152602081019050610600565b50505050905090810190601f1680156106485780820380516001836020036101000a031916815260200191505b50995050505050505050505060405180910390f35b34801561066957600080fd5b506106966004803603602081101561068057600080fd5b8101908080359060200190929190505050611540565b005b6000809054906101000a900473ffffffffffffffffffffffffffffffffffffffff1673ffffffffffffffffffffffffffffffffffffffff163373ffffffffffffffffffffffffffffffffffffffff16141515610782576040517f08c379a00000000000000000000000000000000000000000000000000000000081526004018080602001828103825260278152602001807f4f6e6c792061646d696e73747261746f722063616e206b696c6c20746865206381526020017f6f6e74726163740000000000000000000000000000000000000000000000000081525060400191505060405180910390fd5b6000809054906101000a900473ffffffffffffffffffffffffffffffffffffffff1673ffffffffffffffffffffffffffffffffffffffff16ff5b6000600180838154811015156107ce57fe5b906000526020600020906007020160060160006101000a81548160ff02191690831515021790559050919050565b600060011515600060149054906101000a900460ff161515141515610889576040517f08c379a00000000000000000000000000000000000000000000000000000000081526004018080602001828103825260168152602001807f436f6e7472616374206973206e6f74206f6e6c696e650000000000000000000081525060200191505060405180910390fd5b600082111515610901576040517f08c379a00000000000000000000000000000000000000000000000000000000081526004018080602001828103825260128152602001807f5072696365206973206e6f742076616c6964000000000000000000000000000081525060200191505060405180910390fd5b600060018054905090506001610120604051908101604052806001840181526020013373ffffffffffffffffffffffffffffffffffffffff168152602001600073ffffffffffffffffffffffffffffffffffffffff16815260200187815260200186815260200185815260200160001515815260200160001515815260200160001515815250908060018154018082558091505090600182039060005260206000209060070201600090919290919091506000820151816000015560208201518160010160006101000a81548173ffffffffffffffffffffffffffffffffffffffff021916908373ffffffffffffffffffffffffffffffffffffffff16021790555060408201518160020160006101000a81548173ffffffffffffffffffffffffffffffffffffffff021916908373ffffffffffffffffffffffffffffffffffffffff1602179055506060820151816003019080519060200190610a669291906117c1565b506080820151816004019080519060200190610a839291906117c1565b5060a0820151816005015560c08201518160060160006101000a81548160ff02191690831515021790555060e08201518160060160016101000a81548160ff0219169083151502179055506101008201518160060160026101000a81548160ff02191690831515021790555050505060018054905060018201141515610b0557fe5b7f953b413691095121d47ece72dc15babba90d3e8b8e5504b53a64d354be8bde44338685604051808473ffffffffffffffffffffffffffffffffffffffff1673ffffffffffffffffffffffffffffffffffffffff16815260200180602001838152602001828103825284818151815260200191508051906020019080838360005b83811015610ba1578082015181840152602081019050610b86565b50505050905090810190601f168015610bce5780820380516001836020036101000a031916815260200191505b5094505050505060405180910390a16001805490509150509392505050565b600181815481101515610bfc57fe5b90600052602060002090600702016000915090508060000154908060010160009054906101000a900473ffffffffffffffffffffffffffffffffffffffff16908060020160009054906101000a900473ffffffffffffffffffffffffffffffffffffffff1690806003018054600181600116156101000203166002900480601f016020809104026020016040519081016040528092919081815260200182805460018160011615610100020316600290048015610cfa5780601f10610ccf57610100808354040283529160200191610cfa565b820191906000526020600020905b815481529060010190602001808311610cdd57829003601f168201915b505050505090806004018054600181600116156101000203166002900480601f016020809104026020016040519081016040528092919081815260200182805460018160011615610100020316600290048015610d985780601f10610d6d57610100808354040283529160200191610d98565b820191906000526020600020905b815481529060010190602001808311610d7b57829003601f168201915b5050505050908060050154908060060160009054906101000a900460ff16908060060160019054906101000a900460ff16908060060160029054906101000a900460ff16905089565b60011515600060149054906101000a900460ff161515141515610e6c576040517f08c379a00000000000000000000000000000000000000000000000000000000081526004018080602001828103825260168152602001807f436f6e7472616374206973206e6f74206f6e6c696e650000000000000000000081525060200191505060405180910390fd5b34600182815481101515610e7c57fe5b906000526020600020906007020160050154141515610f29576040517f08c379a00000000000000000000000000000000000000000000000000000000081526004018080602001828103825260278152602001807f496e73756666696369656e7420616d6f756e7420746f2062757920746869732081526020017f70726f647563740000000000000000000000000000000000000000000000000081525060400191505060405180910390fd5b33600182815481101515610f3957fe5b906000526020600020906007020160020160006101000a81548173ffffffffffffffffffffffffffffffffffffffff021916908373ffffffffffffffffffffffffffffffffffffffff16021790555060018082815481101515610f9857fe5b906000526020600020906007020160060160006101000a81548160ff02191690831515021790555050565b60003373ffffffffffffffffffffffffffffffffffffffff16600183815481101515610feb57fe5b906000526020600020906007020160020160009054906101000a900473ffffffffffffffffffffffffffffffffffffffff1673ffffffffffffffffffffffffffffffffffffffff161415156110ce576040517f08c379a00000000000000000000000000000000000000000000000000000000081526004018080602001828103825260228152602001807f4f6e6c792062757965722063616e2072656365697665207468652070726f647581526020017f637400000000000000000000000000000000000000000000000000000000000081525060400191505060405180910390fd5b600180838154811015156110de57fe5b906000526020600020906007020160060160026101000a81548160ff02191690831515021790559050919050565b60006001151560018381548110151561112157fe5b906000526020600020906007020160060160009054906101000a900460ff1615151415156111b7576040517f08c379a000000000000000000000000000000000000000000000000000000000815260040180806020018281038252601a8152602001807f43616e6e6f74207368697020756e736f6c642070726f6475637400000000000081525060200191505060405180910390fd5b3373ffffffffffffffffffffffffffffffffffffffff166001838154811015156111dd57fe5b906000526020600020906007020160010160009054906101000a900473ffffffffffffffffffffffffffffffffffffffff1673ffffffffffffffffffffffffffffffffffffffff1614151561129a576040517f08c379a000000000000000000000000000000000000000000000000000000000815260040180806020018281038252601e8152602001807f4f6e6c792073656c6c65722063616e207265636569766520616d6f756e74000081525060200191505060405180910390fd5b600180838154811015156112aa57fe5b906000526020600020906007020160060160016101000a81548160ff02191690831515021790559050919050565b60006060806000806000806001888154811015156112f257fe5b90600052602060002090600702016000015460018981548110151561131357fe5b906000526020600020906007020160030160018a81548110151561133357fe5b906000526020600020906007020160040160018b81548110151561135357fe5b90600052602060002090600702016005015460018c81548110151561137457fe5b906000526020600020906007020160060160009054906101000a900460ff1660018d8154811015156113a257fe5b906000526020600020906007020160060160019054906101000a900460ff1660018e8154811015156113d057fe5b906000526020600020906007020160060160029054906101000a900460ff16858054600181600116156101000203166002900480601f0160208091040260200160405190810160405280929190818152602001828054600181600116156101000203166002900480156114845780601f1061145957610100808354040283529160200191611484565b820191906000526020600020905b81548152906001019060200180831161146757829003601f168201915b50505050509550848054600181600116156101000203166002900480601f0160208091040260200160405190810160405280929190818152602001828054600181600116156101000203166002900480156115205780601f106114f557610100808354040283529160200191611520565b820191906000526020600020905b81548152906001019060200180831161150357829003601f168201915b505050505094509650965096509650965096509650919395979092949650565b60011515600060149054906101000a900460ff1615151415156115cb576040517f08c379a00000000000000000000000000000000000000000000000000000000081526004018080602001828103825260168152602001807f436f6e7472616374206973206e6f74206f6e6c696e650000000000000000000081525060200191505060405180910390fd5b3373ffffffffffffffffffffffffffffffffffffffff166001828154811015156115f157fe5b906000526020600020906007020160010160009054906101000a900473ffffffffffffffffffffffffffffffffffffffff1673ffffffffffffffffffffffffffffffffffffffff161415156116ae576040517f08c379a000000000000000000000000000000000000000000000000000000000815260040180806020018281038252601e8152602001807f4f6e6c792073656c6c65722063616e207265636569766520616d6f756e74000081525060200191505060405180910390fd5b600115156001828154811015156116c157fe5b906000526020600020906007020160060160029054906101000a900460ff161515141515611757576040517f08c379a00000000000000000000000000000000000000000000000000000000081526004018080602001828103825260198152602001807f50726f64756374207374696c6c206e6f7420726563656976650000000000000081525060200191505060405180910390fd5b3373ffffffffffffffffffffffffffffffffffffffff166108fc60018381548110151561178057fe5b9060005260206000209060070201600501549081150290604051600060405180830381858888f193505050501580156117bd573d6000803e3d6000fd5b5050565b828054600181600116156101000203166002900490600052602060002090601f016020900481019282601f1061180257805160ff1916838001178555611830565b82800160010185558215611830579182015b8281111561182f578251825591602001919060010190611814565b5b50905061183d9190611841565b5090565b61186391905b8082111561185f576000816000905550600101611847565b5090565b9056fea165627a7a7230582017af671a45841434ad2c317349d6f43fdc0c96c522d9698b28c14ec84ee33c760029",
  "source": "pragma solidity ^0.5.0;\n\n/**\n@title Ecommerce Store\n@dev   A simple listing and buying smart contract\n */\ncontract EcomStore {\n\n    //owner of the contract\n    address payable admin;\n\n    //check the contract or admin is active\n    bool    isAdminOnline;\n\n    //data structure for product information\n    struct Product {\n        uint productId;\n        address seller;\n        address buyer;\n        string productName;\n        string productDesc;\n        uint productPrice;\n        bool isSold;\n        bool isShipped;\n        bool isReceived;\n    }\n\n    //array of Product struct\n    Product[] public products;\n    \n    event ListProductEvent(address seller, string name, uint price);\n\n    constructor () public {\n        admin = msg.sender;\n        isAdminOnline = true;\n    }\n\n    /**\n        @dev add saleable product\n    */\n    function listProduct(string memory _productName, string memory _productDesc, uint _productPrice) public returns (uint) {\n        require(isAdminOnline == true,\"Contract is not online\");\n        require(_productPrice > 0,\"Price is not valid\");\n        \n        uint count = products.length;\n        products.push(\n            Product({\n                productId: count + 1,\n                seller: msg.sender,\n                buyer: address(0),\n                productName: _productName,\n                productDesc: _productDesc,\n                productPrice: _productPrice,\n                isSold: false,\n                isShipped: false,\n                isReceived: false  \n            })    \n        );\n        assert(count + 1 == products.length);\n        emit ListProductEvent(msg.sender, _productName, _productPrice);\n\n        return products.length;\n    }\n\n    /**\n        @dev get specific product\n        @param _productId is the id of the product in Array\n    */\n    function getProduct(uint _productId) public view returns (uint productId,\n        string memory productName,\n        string memory productDesc,\n        uint productPrice,\n        bool isSold,\n        bool isShipped,\n        bool isReceived) {\n\n        return (\n            products[_productId].productId,\n            products[_productId].productName,\n            products[_productId].productDesc,\n            products[_productId].productPrice,\n            products[_productId].isSold,\n            products[_productId].isShipped,\n            products[_productId].isReceived\n        );\n\n    }\n\n    /**\n        @dev check if product is shipped.\n    */\n    function productShipped(uint _productId) public returns(bool) {\n        require(products[_productId].isSold == true,\"Cannot ship unsold product\");\n        require(products[_productId].seller == msg.sender,\"Only seller can receive amount\");\n        return products[_productId].isShipped = true;\n    }\n\n    /**\n        @dev check if product already received by the buyer. Only buyer can mark call\n    */\n    function productReceived(uint _productId) public returns(bool) {\n        require(products[_productId].buyer == msg.sender, \"Only buyer can receive the product\");\n        return products[_productId].isReceived = true;\n    }\n\n    /**\n        @dev check if product was sold\n    */\n    function productSold(uint _productId) public  returns(bool)  {\n        return products[_productId].isSold = true;\n    }\n\n    /**\n        @dev request the money after product was shipped and marked as received by the buyer\n    */\n    function fundTransfer(uint _productId) public {\n        require(isAdminOnline == true,\"Contract is not online\");\n        require(products[_productId].seller == msg.sender,\"Only seller can receive amount\");\n        require(products[_productId].isReceived == true, \"Product still not receive\");\n        \n        msg.sender.transfer(products[_productId].productPrice);\n    }\n\n    function buyProduct(uint _productId) public payable {\n        require(isAdminOnline == true,\"Contract is not online\");\n        require(products[_productId].productPrice == msg.value, \"Insufficient amount to buy this product\");\n      \n        products[_productId].buyer = msg.sender;\n        products[_productId].isSold = true;\n    }\n\n    function kill() public {\n        require(msg.sender == admin,\"Only adminstrator can kill the contract\");\n        selfdestruct(admin);\n    }\n}",
  "sourcePath": "C:/Users/ma2/git-dvcs/solidity-demo-project/ecomstore-smart-contract/contracts/EcomStore.sol",
  "compiler": {
    "name": "solc",
    "version": "0.5.0+commit.1d4f565a.Emscripten.clang"
  },
  "schemaVersion": "3.0.1",
  "updatedAt": "2019-01-08T07:42:37.556Z",
  "devdoc": {
    "details": "A simple listing and buying smart contract",
    "methods": {
      "fundTransfer(uint256)": {
        "details": "request the money after product was shipped and marked as received by the buyer"
      },
      "getProduct(uint256)": {
        "details": "get specific product",
        "params": {
          "_productId": "is the id of the product in Array"
        }
      },
      "listProduct(string,string,uint256)": {
        "details": "add saleable product"
      },
      "productReceived(uint256)": {
        "details": "check if product already received by the buyer. Only buyer can mark call"
      },
      "productShipped(uint256)": {
        "details": "check if product is shipped."
      },
      "productSold(uint256)": {
        "details": "check if product was sold"
      }
    },
    "title": "Ecommerce Store"
  },
  "userdoc": {
    "methods": {}
  }
}